:0400000005EF00F018
:10000800100054EC00F092808368010EC26E0E0E50
:10001800C16E160EC06E3BD8C282C2B2FED7BE0EEB
:10002800F66E000EF76E0900F55002E040D8FBD7D7
:10003800C4500DD810505BEC00F009505BEC00F098
:1000480008505BEC00F00D0E5BEC00F0E4D7026E9C
:100058000A0E046A042A025EFDE20406022602C0B1
:1000680005F004C002F0046A042A025EFDE20406F8
:10007800022602C006F004C007F0300E0510086E14
:10008800300E0610096E300E0710106E1200100E9A
:10009800006EFF0E016E0106FEE10006FAE1120095
:1000A800949C4D0EAF6E200EAC6EAB8E12009EA8C7
:1000B800FED7AD6E1200434F4E564552544544206C
:0F00C8004449474954414C20444154413A200097
:020000040030CA
:04000000240E1F1E8D
:020005008181F7
:060008000FC00FE00F40E5
:00000001FF
