:107F020084EF3FF010000F0E936E9590959295942A
:107F1200D3EC3FF0C20EF66E7F0EF76E0900F550FD
:107F220002E013D8FBD7C90EF66E7F0EF76E09007A
:107F3200F55002E01CD8FBD7C60E07D8000E17D8A2
:107F4200010E15D8020E13D8FFD7036EF00B816E07
:107F52008390839283841DD8839403500F0BE83A55
:107F6200816E83908392838414D883941200036E6B
:107F7200F00B816E8380839283840BD883940350A9
:107F82000F0BE83A816E83808392838402D88394B4
:107F92001200FF0E006EFF0E016E0106FEE10006EA
:107FA200FAE11200180E026E400ECFDFE80EF66EF6
:107FB2007F0EF76E0900F550DADF0206FBE11200D0
:107FC200022801060C800048656C6C6F20576F72A6
:107FD2006C64212121003420424954204D4F4445F4
:107FE20020574F524B001F141F151D011F00030283
:0E7FF200021715151F00040017151E030E00C0
:020000040030CA
:04000000240E1F1E8D
:020005008181F7
:060008000FC00FE00F40E5
:00000001FF
