:0400000005EF00F018
:100008001000F00E936E948E949C4D0EAF6E000E01
:10001800AC6E900EAB6E9E9A9E989EAAFED7AECFFF
:1000280000F0300E006201D01DD0310E006201D008
:100038001BD0320E006201D019D0330E006201D0FD
:1000480017D0340E006201D015D0350E006201D0F1
:1000580013D0360E006201D011D0370E006201D0E5
:100068000FD0D9D78180D7D78182D5D78184D3D7EC
:100078008186D1D78190CFD78192CDD78194CBD7A4
:040088008196C9D7BD
:020000040030CA
:04000000240E1F1E8D
:020005008181F7
:060008000FC00FE00F40E5
:00000001FF
