:0400000008EF00F015
:10000800F2B014EF00F01000956AF19EF00E936EB6
:10001800816E8162FED7000EF76EF28EF286FFD7F0
:1000280047EC00F081CF02F0FE0E816E81620ED0A7
:10003800FD0E816E81620CD0FB0E816E81620AD04A
:10004800F70E816E816208D043EF00F0A00E05D054
:10005800A40E03D0A80E01D0AC0EF66EF00E021A54
:10006800023A023202E2F62AFCD70800F5CF83FFF3
:10007800831EF00E816E8162FCD7F2901000000E94
:10008800836E3DEF00F0100E006EFF0E016E01064C
:10009800FEE10006FAE112003132334134353642CE
:0800A800373839432A302344A4
:020000040030CA
:04000000240E1F1E8D
:020005008181F7
:060008000FC00FE00F40E5
:00000001FF
