:0400000005EF00F018
:100008001000936A9590959295947C0EF66E000E6A
:10001800F76E0900F55002E016D8FBD7820EF66E8F
:10002800000EF76E0900F55002E014D8FBD7C00E99
:100038000AD8930EF66E000EF76E0900F55002E02E
:1000480009D8FBD7FFD7816E83908392838409D820
:1000580083941200816E83808392838402D8839470
:100068001200FF0E006EFF0E016E0106FEE1000693
:10007800FAE112003801060F80005B48656C6C6F6E
:1000880020576F726C642121215D004920616D2029
:09009800566574726976656C000E
:020000040030CA
:04000000240E1F1E8D
:020005008181F7
:060008000FC00FE00F40E5
:00000001FF
