:0400000005EF00F018
:1000080010000F0E936E959095929594AA0EF66E29
:10001800000EF76E0900F55002E016D8FBD7B10EB6
:10002800F66E000EF76E0900F55002E01FD8FBD7F8
:10003800C00E0AD8C00EF66E000EF76E0900F55015
:1000480002E014D8FBD7FFD7036EF00B816E8390C4
:10005800839283841DD8839403500F0BE83A816EF2
:1000680083908392838414D883941200036EF00BD8
:10007800816E8380839283840BD8839403500F0B03
:10008800E83A816E83808392838402D88394120035
:10009800FF0E006EFF0E016E0106FEE10006FAE19A
:1000A8001200022801060F800048656C6C6F20570B
:1000B8006F726C64212121003420424954204D4F35
:0900C800444520574F524B5300F0
:020000040030CA
:04000000240E1F1E8D
:020005008181F7
:060008000FC00FE00F40E5
:00000001FF
